:08000000803102288731FD2F39
:100A1E00F100710885311B2508007E01CE014001D1
:100A2E008E01EC3093000800F0004E010F1E1C2DBD
:100A3E00700842019A00080086315E2685318531A4
:100A4E002C258531853136250800623051018D0007
:100A5E008F0191010230930090019201080008303D
:100A6E0042019F0090309D0024309E0019309B0063
:100A7E009C010800013041019E0013141318452DEE
:100A8E000D08F3000C08F2007308F1007208F00074
:100A9E0008005630F2008830F30085317A25853112
:100AAE0040010E1B572D403093000E118E148E17E1
:100ABE008E168531B42508006330F2008830F300BD
:100ACE0085317A25853140010E1B6A2D4030930009
:100ADE000E118E148E178E160E1F732D0E1B752D66
:100AEE000E1B0800772D7430F4007408F70073089D
:100AFE00F5007208F400F20A0319F30A7408840070
:100B0E00750885000008F6007608F80078080319C5
:100B1E000800780885310F2585317E2DFE30400185
:100B2E00910091147E01B814410194019501960132
:100B3E00990197019B019C01843093009A01013029
:100B4E009E00203042019E0080309D003630F20023
:100B5E008830F30085317A250800F101F20100306A
:100B6E00720232300319710203180800013040017D
:100B7E008D007430890BC12D003240018D0107307C
:100B8E00F0000830890BC92DF00BC92D0032013051
:100B9E00F1070030F23DB62D1C30F2008830F30024
:100BAE0085317A25853140010E1BDA2D40309300B8
:100BBE000E118E148E178E16FA01FB0100307B0279
:100BCE00323003197A0203180800013040018D00FB
:100BDE00AF30890BF02D40018D010630F900CF307A
:100BEE00890BF72DF90BF72D0130FA070030FB3D7D
:100BFE00E52D0030F2008830F30085317A258631FC
:100C0E0040010E1B072E403093000E118E148E17CE
:100C1E008E16FA01FB0100307B02323003197A0284
:100C2E0003180800013040018D005B30890B1D2E2A
:100C3E00003240018D010730F9002130890B252E3D
:100C4E00F90B252E00320130FA070030FB3D122E33
:100C5E000030F2008830F30085317A25863140016C
:100C6E000E1B362E403093000E118E148E178E16DC
:100C7E00FA01FB0100307B02323003197A020318AD
:100C8E000800013040018D009130890B4C2E00324E
:100C9E0040018D010630F900F230890B542EF90B0C
:100CAE00542E00320130FA070030FB3D412E400138
:100CBE009701960198017E01B901C401CF01FF3061
:100CCE00B800FF30C3007F30CE00FF3040019200ED
:100CDE00BF309300FF30910000308B1B0130F000CD
:100CEE008B1355307D018F00AA308F000F101730F7
:100CFE00CB0010307E01A6000930A30055307D01D7
:100D0E008F00AA308F000F14701C8F2E8B170800C7
:100D1E008B13080085311425863140010E1FCD2E10
:100D2E00942E8E1E8E1BA02E8E1C0E19A02EF1013F
:100D3E00CD2E8E1E8E1BA92E8E1C0E1DA92EF101E0
:100D4E00F10ACD2E8E1E8E1BB12E8E180E19B12EBF
:100D5E000230CA2E8E1E8E1BB92E8E180E1DB92E67
:100D6E000330CA2E8E1E8E1FC12E8E1C0E19C12E42
:100D7E000430CA2E8E1E8E1FC92E8E1C0E1DC92E1D
:100D8E000530CA2E0F30F0007008F1000E1F982E9D
:100D9E000E1BCF2E0E1FD12E710808008531232574
:100DAE008631400192018531952586314730F2001A
:100DBE008830F30085317A25863140011110853156
:100DCE004125863171084001A6007008A500033048
:100DDE002602813003192502031CF72E0C14F82E5F
:100DEE008C01863191268631FC007C084001A700DB
:100DFE002708031D062F853150258631E62E40012A
:100E0E002703031D0E2F853163258631E62E023012
:100E1E0040012706031D172F873132278631E62E14
:100E2E00033040012706031D202F86312F268631E1
:100E3E00E62E043040012706031D292F8531D325C8
:100E4E008631E62E053040012706031DE62E86313B
:100E5E0000268631E62E6930F2008830F3008531A7
:100E6E007A25873185314125873171084001A200ED
:100E7E007008A10022080339F9007908A0002208A1
:100E8E00FA002108F9000430FA36F90C890B4B2FC1
:100E9E0079080F39FB007B08A30021080F39F900F0
:100EAE007908A4000E1F592F0E1B5B2F40309300A4
:100EBE0020080139F900F90DF90D0E087906FB39F4
:100ECE0079068E0020360139F900F90D0E087906E3
:100EDE00FD3979068E008E138E120E1F742F0E1B87
:100EEE00762F0E1F782F0E1B7A2F23080139F9004B
:100EFE00F90DF90D0E087906FB3979068E002336A9
:100F0E000139F900F90D0E087906FD3979068E00C2
:100F1E002308F9000230F936890B922F790801392E
:100F2E00FA00FA0CFA0C0E087A067F397A068E0051
:100F3E002308F9000330F936890BA22F79080139FD
:100F4E00FA00FA0EFA0D0E087A06DF397A068E00CE
:100F5E000E1FAF2F0E1BB12F0E1FB32F0E1BB52F53
:100F6E0024080139F900F90DF90D0E087906FB393F
:100F7E0079068E0024360139F900F90D0E0879062E
:100F8E00FD3979068E002408F9000230F936890BF6
:100F9E00CD2F79080139FA00FA0CFA0C0E087A06F0
:100FAE007F397A068E002408F9000330F936890B52
:100FBE00DD2F79080139FA00FA0EFA0D0E087A06BD
:100FCE00DF397A068E000E1FEA2F0E1BEC2F0E1F36
:100FDE00EE2F0E1BF02F0E118E148E178E160E1F67
:100FEE00F62F0E1BF82F0E1B0800FA2F400186312C
:100FFE00D52E443465346C346134793420346D34F8
:10100E00653420346A347534733474342034613466
:10101E0020346C346934743474346C346534203454
:10102E006234693474340A340034523445344534ED
:10103E0045344534453445344534453445344534DA
:10104E0045344534453445344534453445344534CA
:10105E00453445344534453445340A340034493436
:10106E006E3469347434693461346C3469347A346E
:10107E006534643420344134443443340A34003407
:10108E005334743461347234743469346E34673466
:10109E0020346D34613469346E340A340034523481
:1010AE00453445344534453445344534453445346A
:1010BE004534453445340034503449344E34473485
:0C10CE000A3400343B3429340A34003466
:020000040001F9
:0A000E00EC3FFF3B9F3FFF3FFF3F29
:00000001FF
