:08000000803102288731F22F44
:10050000F1007108823185220800F0004E010F1EB3
:10051000862A700842019A000800833184238231C0
:100520008231962282318231A0220800623051014C
:100530008D008F019101023093009001920108001B
:10054000083042019F0090309D0024309E001930F9
:100550009B009C01080040010E0E890C890C01399A
:10056000A300A40122082406031DB82A210823069B
:10057000031D08008431A1248231AB2A7430F400B9
:100580007408F7007308F5007208F400F20A031902
:10059000F30A74088400750885000008F6007608E0
:1005A000F800780803190800780882318022823127
:1005B000C22A400191017E01B801400191147E01DF
:1005C000B8144101940195019601990197019B018D
:1005D0009C01843093009A0101309E006B30F20040
:1005E0008830F3008231BE22080040010E0E890CD3
:1005F0000139F0000330F035890BFB2A0E0D0E0D8A
:100600000139F1000130F135FF3E031D032B713537
:100610007007F2000E0C013909077207F3000E0C87
:10062000890C0139730708006430F0000030F100D4
:100630007908FB007808FA00FA0EFB0EF030FB0593
:100640007A080F39FB04F030FA057A08F2007B08CB
:10065000F3008331B72370080F3EFC000030713D7A
:10066000FD0046018D017C088C00080040019301CB
:100670007E01CE014D3045018D008F3046018E0048
:100680003230F8000030F900833114238331013017
:1006900044019E00013045019000E0308E004E0183
:1006A000900145018E17903040019E0041309F001F
:1006B0009E1791018231D9220800E6304001930053
:1006C0000130A1000030A2008231AB228331003022
:1006D0004001A100A2008231AB22833140010E1FF4
:1006E0007C2B8231F52283314001A500A60125082B
:1006F000A7002608A8006E2B0030A100A2008231BE
:10070000AB2240012708080040019701960198019B
:100710007E01B901C401CF01FF30B800FF30C30032
:100720007F30CE00FF3040019200BF309300FF3099
:10073000910000308B1B0130F0008B1355307D0190
:100740008F00AA308F000F101730CB0010307E01C1
:10075000A6000930A30055307D018F00AA308F001C
:100760000F14701CB52B8B1708008B130800F501B4
:10077000F601700871040319E62BF701F70AF11B63
:10078000CB2B0130F035F10D890BC22B0130F40079
:100790007408F707BF2B0130F535F60D890BCC2B0C
:1007A00071087302031DD62B70087202031CDD2B27
:1007B0007008F2027108F33B75140130F136F00C49
:1007C000890BDE2B0130F702031DCB2B7608F100DD
:1007D0007508F0000800F200400193011317720839
:1007E0000139F000F00DF00D0E087006FB397006AF
:1007F0008E0072360139F000F00D0E087006FD39DA
:1008000070068E007208F0000230F036890B052C5D
:1008100070080139F100F10CF10C0E0871067F39F6
:1008200071068E007208F0000330F036890B152C2B
:1008300070080139F100F10EF10D0E087106DF3973
:1008400071068E00080000304001A100A200823134
:10085000AB2284310030F2008830F3008231BE22B6
:10086000843101304001A1000030A2008231AB226E
:1008700084314001B801B9010E308331EB2384315A
:1008800000304001A100A2008231AB22843101304E
:100890004001A1000030A2008231AB22843100303F
:1008A0004001A100A2008231AB228431113040010D
:1008B000A5003A30890B5A2CA50B5A2C00000800D1
:1008C00000304001A100A2008231AB228431AE3061
:1008D000F2008830F3008231BE22843101304001C1
:1008E000A1000030A2008231AB2284310E3083316E
:1008F000EB23843100304001A100A2008231AB2201
:10090000843101304001A1000030A2008231AB22CD
:10091000843100304001A100A2008231AB22843139
:10092000A530F2008830F3008231BE2284311130CC
:100930004001A5003A30890B9B2CA50B9B2C000095
:1009400008004E018C1E08004001380839040319C4
:1009500008004E018C124001340835040319B42CF0
:100960000230B6070030B72CFE30B607FF30B73D77
:100970003708F9003608F800833114238431400128
:100980003708803AA0003308803A2002031DCA2CA1
:1009900032083602031CD02C4001B401B501080016
:1009A00040013108803AA0003708803A2002031D38
:1009B000DB2C36083002031C080001304001B40073
:1009C0000030B500080000304001A100A2008231D3
:1009D000AB2284318830F2008830F3008231BE22AD
:1009E000843101304001A1000030A2008231AB22ED
:1009F00084310030F800F900833114238431400140
:100A0000B801B9010E308331EB238431003040014D
:100A1000A100A2008231AB22843101304001A1004B
:100A20000030A2008231AB22843100304001A100AD
:100A3000A2008231AB22843111304001A5003A304E
:100A4000890B202DA50B202D00000800003040014F
:100A5000A100A2008231AB2285319230F2008830B1
:100A6000F3008231BE22853101304001A100003007
:100A7000A2008231AB2285316430F8000030F900E9
:100A80008331142385314001B801B9010E3083311F
:100A9000EB23853100304001A100A2008231AB225E
:100AA000853101304001A1000030A2008231AB222B
:100AB000853100304001A100A2008231AB22853196
:100AC00011304001A5003A30890B642DA50B642D2F
:100AD0000000080000304001A100A2008231AB22DA
:100AE00085310030F2008830F3008231BE2285313A
:100AF00001304001A1000030A2008231AB228531DB
:100B000001304001B8000030B9006430B20000305C
:100B1000B300B001B1010E308331EB2385310030D9
:100B20004001A100A2008231AB2285310130400199
:100B3000A1000030A2008231AB228531003040019B
:100B4000A100A2008231AB22853111304001A50005
:100B50003A30890BA92DA50BA92D00000800003003
:100B60004001A100A2008231AB2285313A30F2006F
:100B70008830F3008231BE22853101304001A1006E
:100B80000030A2008231AB22853101304001B80033
:100B90000030B9004B30B2000030B3001930B00063
:100BA0000030B1000E308331EB238531003040013D
:100BB000A100A2008231AB22853101304001A100A9
:100BC0000030A2008231AB22853100304001A1000B
:100BD000A2008231AB22853111304001A5003A30AC
:100BE000890BF02DA50BF02D00000800003040010E
:100BF000A100A2008231AB2285319C30F200883006
:100C0000F3008231BE22853100304001A100A200F4
:100C10008231AB22853101304001A1000030A200B9
:100C20008231AB2285314B30F8000030F90083313E
:100C3000142385314001B801B9010E308331EB2313
:100C4000853100304001A100A2008231AB22853104
:100C500001304001A1000030A2008231AB22853179
:100C600000304001A100A2008231AB228531113059
:100C70004001A5003A30890B3B2EA50B3B2E00000E
:100C8000080000304001A100A2008231AB22863171
:100C90001D30F2008830F3008231BE2286310130EF
:100CA0004001A1000030A2008231AB2286313230F7
:100CB000F8000030F9008331142386314001B80177
:100CC000B9013230B6000030B7004B30B20000300E
:100CD000B3001930B0000030B1000E308331EB2387
:100CE000863100304001A100A2008231AB22863162
:100CF00001304001A1000030A2008231AB228631D8
:100D000000304001A100A2008231AB2286311130B7
:100D10004001A5003A30890B8B2EA50B8B2E0000CD
:100D2000080082318D2286318331362386310F309F
:100D30004001AD002D08AF003230F8000030F9005E
:100D40008331142386314001B801B9013230B60035
:100D50000030B7004B30B2000030B3001930B000A3
:100D60000030B1000C1402304001AE004530AD003F
:100D7000A930890BB92EAD0BB92EAE0BB92E0032AE
:100D800040010C104001380839040319CC2E0C1412
:100D90008431A1248631CD2E0C1083315D23863120
:100DA0004001AD002D08AF002F08031DDB2E86315A
:100DB00041268631C22E40012F03031DE32E8431CC
:100DC00060248631C22E023040012F06031DEC2E16
:100DD00087312B278631C22E033040012F06031D99
:100DE000F52E8531F6258631C22E043040012F06BE
:100DF000031DFE2E853126258631C22E0530400189
:100E00002F06031D072F8431E3248631C22E0630BE
:100E100040012F06031D102F8531AF258631C22ECC
:100E2000073040012F06031D192F85316A258631B1
:100E3000C22E083040012F06031D222F84312324A7
:100E40008631C22E093040012F06031DC22E843187
:100E500023248631C22E5530F2008830F3008231CF
:100E6000BE228731013041019E0013141318362F22
:100E70000D084001AC0041010C084001AB002C08FA
:100E80000339A5002508A8002C08A6002B08A500FA
:100E90000430A636A50C890B492F25080F39A70069
:100EA0002708A9002B080F39A5002508AA00003043
:100EB000A100A2008231AB22873101304001A100A4
:100EC0000030A2008231AB228731400128088331F3
:100ED000EB23873100304001A100A2008231AB2218
:100EE000873101304001A1000030A2008231AB22E5
:100EF000873100304001A100A2008231AB2287314E
:100F000001304001A1000030A2008231AB228731C4
:100F1000400129088331EB23873100304001A100D3
:100F2000A2008231AB22873101304001A1000030A4
:100F3000A2008231AB22873100304001A100A20023
:100F40008231AB22873101304001A1000030A20084
:100F50008231AB22873140012A088331EB2387316C
:100F600000304001A100A2008231AB228731013064
:100F70004001A1000030A2008231AB228731003055
:100F80004001A100A2008231AB2287310130400133
:100F9000A1000030A2008231AB2287310E308331B4
:100FA000EB23873100304001A100A2008231AB2247
:100FB000873101304001A1000030A2008231AB2214
:100FC000873100304001A100A2008231AB2287317D
:100FD00011304001A5003A30890BEC2FA50BEC2F06
:100FE000000008004001B001B101B201B301B40139
:100FF000B501B601B701B801B90140018631912EA2
:1010000073346534743420347334633461346E342F
:101010006E3469346E346734203474346F34203461
:1010200031343834203430346434653467347234C5
:101030006534653473340A340034523445344534ED
:1010400045344534453445344534453445344534D8
:1010500045344534453445344534453445344534C8
:10106000453445344534453445347334653474343B
:101070000A34003473346534743420347334633484
:1010800061346E346E3469346E34673420347434B1
:101090006F34203439343034643465346734723416
:1010A0006534653473340A340034533465346E3433
:1010B000643469346E346734203441344434433406
:1010C000203472346534733475346C34743473344E
:1010D00020340A34003449346E3469347434693449
:1010E00061346C3469347A34653464342034413486
:1010F000443443340A34003465346E347434653413
:10110000723420347334633461346E340A340034FE
:101110007334633461346E342034313432343034D7
:101120000A34003473346534723476346F342034C6
:10113000393430340A3400347434753472346E34D3
:101140002034333430340A34003453347534633447
:1011500063346534733473340A340034503449349E
:081160004E3447340A34003418
:020000040001F9
:0A000E00EC3FFF3B9F3FFF3FFF3F29
:00000001FF
