:08000000803102288731FD2F39
:100A5400F10071088531362508007E01CE01400180
:100A64008E01EC3093000800F0004E010F1E372D6C
:100A7400700842019A000800863178268531853154
:100A840047258531853151250800623051018D009B
:100A94008F01910102309300900192010800083007
:100AA40042019F0090309D0024309E0019309B002D
:100AB4009C010800013041019E0013141318602D9D
:100AC4000D08F3000C08F2007308F1007208F0003E
:100AD40008005630F2008830F300853193258531C3
:100AE40040010E1B722D403093000E118E148E1790
:100AF4008E168531CD2508006330F2008830F3006E
:100B04008531932585310130F900790840018C063F
:100B14000E1B8A2D403093000E118E148E178E16E4
:100B240008007430F4007408F7007308F5007208C4
:100B3400F400F20A0319F30A7408840075088500A6
:100B44000008F6007608F800780803190800780809
:100B540085312A258531972DFE304001910091146D
:100B64007E01B81441019401950196019901970100
:100B74009B019C01843093009A0101309E00203037
:100B840042019E0080309D003630F2008830F30030
:100B9400853193250800F101F201003072023230F0
:100BA4000319710203180800013040018D007D30E3
:100BB400890BDA2D40018D010630F0000030890BDD
:100BC400E12DF00BE12D003200000130F10700307F
:100BD400F23DCF2D0030F2008830F30085319325AB
:100BE400853140010E1BF32D403093000E118E14FD
:100BF4008E178E16FA01FB0100307B023230031986
:100C04007A0203180800013040018D008B30890BF3
:100C1400092E40018D010630F900F230890B102EA7
:100C2400F90B102E00320130FA070030FB3DFE2D87
:100C34000030F2008830F30085319325863140017D
:100C44000E1B212E403093000E118E148E178E161B
:100C5400FA01FB0100307B02323003197A020318D7
:100C64000800013040018D006E30890B372E0032B0
:100C740040018D010730F9000E30890B3F2EF90B2E
:100C84003F2E00000130FA070030FB3D2C2E1C30B3
:100C9400F2008830F30085319325863140010E1B24
:100CA400502E403093000E118E148E178E16FA01BA
:100CB400FB0100307B02323003197A02031808006A
:100CC400013040018D00A630890B662E00324001B0
:100CD4008D010630F900D730890B6E2EF90B6E2E7C
:100CE40000000130FA070030FB3D5B2E4001970104
:100CF400960198017E01B901C401CF01FF30B8000B
:100D0400FF30C3007F30CE00FF3040019200BF307F
:100D14009300FF30910000308B1B0130F0008B13E7
:100D240055307D018F00AA308F000F101730CB0093
:100D340010307E01A6000930A30055307D018F00DC
:100D4400AA308F000F14701CA92E8B1708008B1368
:100D5400080085312F25863140010E1FE72EAE2E67
:100D64008E1E8E1BBA2E8E1C0E19BA2EF101E72E82
:100D74008E1E8E1BC32E8E1C0E1DC32EF101F10A76
:100D8400E72E8E1E8E1BCB2E8E180E19CB2E023004
:100D9400E42E8E1E8E1BD32E8E180E1DD32E0330E2
:100DA400E42E8E1E8E1FDB2E8E1C0E19DB2E0430BD
:100DB400E42E8E1E8E1FE32E8E1C0E1DE32E053098
:100DC400E42E0F30F0007008F1000E1FB22E7108EF
:100DD400080085313E258631400192018531AE25DA
:100DE40086314730F2008830F3008531932586310F
:100DF4004001111085315C25863171084001A6003F
:100E04007008A50003302602813003192502031C53
:100E14000D2F0C140E2F8C018631AB268631FC006D
:100E24007C084001A7002708031D1C2F85316B2572
:100E34008631FC2E40012703031D242F85317E2596
:100E44008631FC2E023040012706031D2D2F8731E9
:100E540048278631FC2E033040012706031D362F18
:100E64008531EC258631FC2E043040012706031D14
:100E74003F2F863149268631FC2E05304001270656
:100E8400031DFC2E86311A268631FC2E6930F200B1
:100E94008830F30085319325873185315C2587318E
:100EA40071084001A2007008A10022080339F9006A
:100EB4007908A0002208FA002108F9000430FA3663
:100EC400F90C890B612F79080F39FB007B08A3000B
:100ED40021080F39F9007908A4000E1B6F2F200890
:100EE4000139F900F90DF90D0E087906FB39790677
:100EF4008E0020360139F900F90D0E087906FD3906
:100F040079068E008E138E120E1F862F0E1B882FCD
:100F140023080139F900F90DF90D0E087906FB399A
:100F240079068E0023360139F900F90D0E08790689
:100F3400FD3979068E002308F9000230F936890B51
:100F4400A02F79080139FA00FA0CFA0C0E087A0677
:100F54007F397A068E002308F9000330F936890BAD
:100F6400B02F79080139FA00FA0EFA0D0E087A0644
:100F7400DF397A068E000E1FBD2F0E1BBF2F2408EB
:100F84000139F900F90DF90D0E087906FB397906D6
:100F94008E0024360139F900F90D0E087906FD3961
:100FA40079068E002408F9000230F936890BD72F10
:100FB40079080139FA00FA0CFA0C0E087A067F391E
:100FC4007A068E002408F9000330F936890BE72FDE
:100FD40079080139FA00FA0EFA0D0E087A06DF399B
:100FE4007A068E000E1FF42F0E1BF62F0E118E1490
:100FF4008E178E16080040018631EB2E443465347A
:101004006C346134793420346D34653420346A347A
:101014007534733474342034613420346C3469345A
:10102400743474346C346534203462346934743404
:101034000A34003452344534453445344534453457
:1010440045344534453445344534453445344534D4
:1010540045344534453445344534453445344534C4
:10106400453445340A34003449346E3469347434B4
:10107400693461346C3469347A34653464342034CA
:101084004134443443340A340034533474346134C2
:101094007234743469346E34673420346D3461349A
:1010A40069346E340A34003452344534453445349A
:1010B4004534453445344534453445344534453464
:1010C4000034503449344E3447340A3400343B3409
:0610D40029340A34003447
:020000040001F9
:0A000E00EC3FFF3B9F3FFF3FFF3F29
:00000001FF
