:08000000803102288731FD2F39
:100C2400F100710886311E2608007E01CE014001C4
:100C34008E01EC3093000800F0004E010F1E1F2EB1
:100C4400700842019A00080087314E2786318631A8
:100C54002F268631863139260800623051018D00F5
:100C64008F01910102309300900192010800083035
:100C740042019F0090309D0024309E0019309B005B
:100C84009C010800013041019E0013141318482EE2
:100C94000D08F3000C08F2007308F1007208F0006C
:100CA400080040010E1B532E403093000E118E1588
:100CB4008E178E16863144267108F5007008F400EC
:100CC40008000030F2008830F3008631A026863117
:100CD40040010E1B6A2E403093000E118E158E17A4
:100CE4008E168631BB260800FE3040019100911417
:100CF4007E01B8144101940195019601990197016F
:100D04009B019C01843093009A0101309E000800ED
:100D1400013040018C002130F0007630890B902E98
:100D2400F00B902E003240010E1B952E40309300A4
:100D34008C010E118E158E178E1608007430F40077
:100D44007408F7007308F5007208F400F20A031936
:100D5400F30A74088400750885000008F600760814
:100D6400F8007808031908007808863112268631BD
:100D7400A42EF101F2010030720232300319710223
:100D840003180800013040018D005330890BC82E30
:100D9400000040018D010730F0002A30890BD02E6D
:100DA400F00BD02E0130F1070030F23DBD2E400192
:100DB4000E1BD92E403093000E118E158E178E16F1
:100DC400F101F2010030720232300319710203188A
:100DD4000800013040018D008C30890BEF2E40015A
:100DE4008D010630F000F230890BF62EF00BF62E52
:100DF4000130F1070030F23DE42E40010E1BFF2EBE
:100E0400403093000E118E158E178E16F101F201EB
:100E140000307202323003197102031808000130E5
:100E240040018D006230890B152F000040018D01B7
:100E34000730F0001B30890B1D2FF00B1D2F0130E4
:100E4400F1070030F23D0A2F40010E1B262F4030DF
:100E540093000E118E158E178E16F101F2010030DB
:100E64007202323003197102031808000130400184
:100E74008D007D30890B3C2F40018D010630F00040
:100E84000030890B432FF00B432F00320000013058
:100E9400F1070030F23D312F40019701960198018E
:100EA4007E01B901C401CF01FF30B800FF30C30097
:100EB4007F30CE00FF3040019200BF309300FF30FE
:100EC400910000308B1B0130F0008B1355307D01F5
:100ED4008F00AA308F000F101730CB0010307E0126
:100EE400A6000930A30055307D018F00AA308F0081
:100EF4000F14701C7F2F8B1708008B13080086318A
:100F04001726873140010E1BBB2F842F8E1E8E1B8C
:100F1400902F8E1D0E19902FF101BB2F8E1E8E1B4C
:100F2400992F8E1D0E1D992FF101F10ABB2F8E1ED4
:100F34008E1BA12F8E190E19A12F0230B82F8E1ED1
:100F44008E1BA92F8E190E1DA92F0330B82F8E1EAC
:100F54008E1FB12F8E1D0E19B12F0430B82F8E1E87
:100F64008E1FBB2F8E1D0E1DBB2F0530F000700889
:100F7400F1000E1B882F7108080086312626873160
:100F84004001920186317626873140011110DD2F10
:100F9400863163268731DD2F86318A268731DD2F1E
:100FA400863153268731DD2F8631FF268731DD2FA9
:100FB400873126278731873181278731F9007908DE
:100FC400FA007A080319CA2F7A030319CE2F0230C4
:100FD4007A060319D22F03307A060319D62F043068
:100FE4007A060319DA2F05307A06031DDD2F8631C0
:100FF400D9268731DD2F40018731BF2F5234453444
:101004004534453445344534453445344534453414
:06101400453445340034B0
:020000040001F9
:0A000E00EC3FFF3B9F3FFF3FFF3F29
:00000001FF
